:020000040000FA
:04000000803108281B
:100008007E1480317E10090080310A285630840021
:100018000030850011308631EA268031A030840016
:100028000030850010308631EA2680317E102000AD
:100038008631B12E8631F0268031003A031D2528FD
:1000480026284028031020008C1E031403182D288E
:10005800302820008C16322820008C12093020000D
:10006800B6001E30B500E430890B3828B50B3828A7
:10007800B60B38280000262800302000B2000030D7
:10008800B1000030B0000030AF00B301B30AB401D2
:100098008431F8248031003A0319532854286C28F5
:1000A8002000BF01C001E0308631D92680310130FF
:1000B8002000BF070030C03D023040020030031965
:1000C8003F02031C6828692857288531E1258031BB
:1000D80000302000B2000030B1000230B000003023
:1000E800AF00B301B30AB4018431F8248031003A77
:1000F80003197F28802898282000C101C201E13017
:100108008631D926803101302000C1070030C23D38
:1001180002304202003003194102031C942895283A
:1001280083288531E125803100302000B20000307D
:10013800B1000630B0000030AF00B301B30AB4011B
:100148008431F8248031003A0319AB28AC28FF2801
:100158008231DE22803173082000BE007208BD00A3
:100168007108BC007008BB003B30B5003508D500ED
:100178000030C3000230C4005508033E86008701E2
:1001880001088631D926803120005508023E8600B4
:10019800870101088631D92680312000550A86005A
:1001A800870101088631D92680312000550886004C
:1001B800870101088631D92680312000CF0100301F
:1001C8008631D926803101302000B5003508CF07A7
:1001D8000C304F06031DF128F228E3281030C30223
:1001E8000030C43B43084404031DFB28FC28C028F6
:1001F8008531E125803100302000B2000030B100A7
:100208000830B0000030AF00B301B30AB401843144
:10021800F8248031003A03191229132933290930A7
:100228008631D92680312000C501C60101308631CA
:10023800D926803101302000C5070030C63D013085
:100248004602FE3003194502031C2B292C291A29C2
:1002580002308631D92680318531E1258031200070
:10026800B701B8010030B2000030B1000830B0006A
:100278000030AF00B301B4018431F8248031003A72
:1002880003194729482967292000C701C8010230F6
:100298004802003003194702031C532954295529E1
:1002A80064298631CE2680312000B500B601350894
:1002B800B7073608B83D0130C7070030C83D4B299D
:1002C8008531E125803109302000370602300319D5
:1002D8003806031D70297129A429D0010A3050025B
:1002E800031C772978297929962903108C1E031471
:1002F80003187F29822920008C16842920008C125B
:1003080003302000B6000830B5007730890B8A2901
:10031800B50B8A29B60B8A2901302000B5003508AB
:10032800D00772298C1215302000B6004B30B5006A
:10033800BE30890B9D29B50B9D29B60B9D29000060
:1003480000302000B2000030B1000A30B0000030A8
:10035800AF00B301B30AB401B40A8431F824803180
:10036800003A0319B829B929F02910302000B5003E
:100378003508D30015305302031CC329C429C529E5
:10038800ED298631802680312000C901CA0102305A
:100398004A02003003194902031CD329D429D5295C
:1003A800DF2953088631D926803101302000C9075A
:1003B8000030CA3DCB29863191268031013020009A
:1003C800B5003508D30715305302031CEC29ED2975
:1003D800C5298531E125803100302000B200003088
:1003E800B100B030B0000030AF00B301B30AB401BF
:1003F800B40A8431F8248031003A0319042A052A02
:100408003D2A2000D401D40A0A305402031C0D2AC4
:100418000E2A0F2A3A2A8631802680310430863106
:10042800D92680312000CB01CC0101304C02FE30AE
:1004380003194B02031C212A222A232A2D2A540895
:100448008631D926803101302000CB070030CC3DE1
:10045800192A07308631D926803186319126803194
:1004680001302000B5003508D407082A8531E12578
:1004780080312000B901BA010030B2000030B1006B
:10048800B230B0000030AF00B301B401B40A843117
:10049800F8248031003A0319522A532A872A200067
:1004A800D10102305102031C5A2A5B2A5C2A842A91
:1004B8008631802680312000CD01CE0102304E02E7
:1004C800003003194D02031C6A2A6B2A6C2A7B2A06
:1004D8008631CE2680312000B500B6013508B9072F
:1004E8003608BA3D0130CD070030CE3D622A86314C
:1004F8009126803101302000B5003508D107552AF2
:100508008531E12580310C30200039060A30031985
:100518003A06031D902A912AC42AD2010A305202AF
:10052800031C972A982A992AB62A03108C1E0314AA
:1005380003189F2AA22A20008C16A42A20008C12B5
:1005480005302000B6000F30B500F130890BAA2A1B
:10055800B50BAA2AB60BAA2A01302000B500350827
:10056800D207922A8C1215302000B6004B30B50005
:10057800BE30890BBD2AB50BBD2AB60BBD2A0000BB
:10058800031020008C1E03140318CB2ACE2A200047
:100598008C16D02A20008C1203302000B6000830B8
:1005A800B5007730890BD62AB50BD62AB60BD62AD2
:1005B800C42A08002000660E890C890C0339003A09
:1005C800031DE72AE82A412B61080F39A0002008FB
:1005D800FA005E0E890C890C0339A000A1015F089E
:1005E800A200A301A235A30DA235A30D600803390B
:1005F800A400A5010A30A435A50D890BFF2A2208FD
:100608002404A60023082504A70020082604F800CF
:1006180021082704F9005C0D5C0D0139A0005D0874
:10062800033909072004A1002108FB007808013ECE
:10063800A0000030793DA1002008A2002108A300F5
:10064800A401A5017B087A07F93E890A2F2BA23558
:10065800A30DA40DA50D890B2B2B0930A235A30DD5
:10066800A40DA50D890B322B2508F3002408F200F0
:100678002308F1002208F000AB2B660E890C890CC8
:100688000339013A031D492B4A2BA32B5D08A0000F
:10069800A101A201A3015E08A400A5012408A500E8
:1006A800A4012408A7002508A8000030A81BFF30D3
:1006B800A900AA005F0C890C3F39AB00AC01AD0161
:1006C800AE011030AB35AC0DAD0DAE0D890B662B00
:1006D8002B08A7042C08A8042D08A9042E08AA048E
:1006E80020082704F40021082804F500220829041A
:1006F800F60023082A04F7007408A0007508A10072
:100708007608A2007708A3000A30A035A10DA20D33
:10071800A30D890B892B0930A035A10DA20DA30DBE
:10072800890B902B00302007F0000030213DF100AC
:100738000830223DF2000030233DF300AB2B00309F
:10074800F3000030F2000030F1000030F000080043
:100758002000D6125613D61305302000B3000F30F0
:10076800B200F130890BB62BB20BB62BB30BB62BFC
:100778008631C0268331FA302000B2003208B40036
:100788000030FC000030FB000030FA000030F900B7
:10079800003084316C248331013A031DD42BD52BCE
:1007A800D82B2000D616E92B68302000B200E430A0
:1007B800890BDC2BB20BDC2B000001302000B402CB
:1007C8003408031DE82BE92BC42BD61EEC2BED2B8C
:1007D8002D2CFA30B2003208B5000030FC00003091
:1007E800FB000030FA000030F900293084316C2415
:1007F80083312000B2003208B600361D042C052CC7
:10080800152C0030FC000030FB000030FA000030EE
:10081800F900013084316C2483312000B2003208A1
:10082800B6003608031D192C1A2C1C2C56172D2C13
:1008380068302000B200E430890B202CB20B202C49
:10084800000001302000B5023508031D2C2C2D2C8A
:10085800F12B561F302C312C512CFA30B2003208B3
:10086800B7000030FC000030FB000230FA00003016
:10087800F900103084316C248331003A031D452C73
:10088800462C492C20005616512C01302000B70266
:100898003708031D502C512C352C561E542C552C22
:1008A800682CA030B2003208FD000A308531A2253C
:1008B800833157302000B2003208FD0009308531FD
:1008C800A22583312000D6178631E326833108001C
:1008D8002000A50025084038A0002008A6007908B7
:1008E800A0007A08A1007B08A2007C08A3001830A9
:1008F800A336A20CA10CA00C890B7C2C2008A40008
:100908002408A7007908A0007A08A1007B08A200A3
:100918007C08A3001030A336A20CA10CA00C890BF4
:100928008F2C2008A4002408A8007908A0007A08C1
:10093800A1007B08A2007C08A3000830A336A20C03
:10094800A10CA00C890BA22C2008A4002408A90043
:100958007908A0002008AA002630A0002008F0008E
:100968000530A1002108F10000308531602584316F
:100978002000A2002208AB00FF308631D92684313E
:100988002000AE012E08263E860087010108863128
:10099800D926843101302000A0002008AE07053098
:1009A8002E02031CD82CD92CC62C2B088631D9260C
:1009B80084312000AD018631CE2684312000A0008C
:1009C8002008AC002C0A0319EA2CEB2CEC2CF62C92
:1009D8000130A0002008AD0710302D02031CF52CB3
:1009E800F62CDF2C2C0808008631C0268431200024
:1009F800330801395611031D561534080139D6112B
:100A0800031DD6153303031D0A2D0B2D392D340371
:100A1800031D0F2D102D232D3208FC003108FB007B
:100A28003008FA002F08F900193084316C24843119
:100A3800003A031D202D212D5B2D01305F2D32083A
:100A4800FC003108FB003008FA002F08F9001830C4
:100A580084316C248431003A031D332D342D5B2DF1
:100A6800FE308631D9268431212D3403031D3D2DD6
:100A78003E2D4B2D3208FC003108FB003008FA00EF
:100A88002F08F900123084316C248431212D32086A
:100A9800FC003108FB003008FA002F08F90011307B
:100AA80084316C248431863107268431212D8631A6
:100AB800E326843100300800F800F401F5018D2D9B
:100AC8007008860087010108F2007208F6000130FC
:100AD800F2007208F007F7010310F80D780876069F
:100AE800F200F21F782D792D7D2D0930F200720861
:100AF800F8060310F60D0130F2007208F707083007
:100B08007702031C882D892D702D0130F4070030E1
:100B1800F53D7108F200F30173087502031D962D67
:100B280072087402031C992D9A2D642D0310F80D78
:100B38000130F2007208F807780808002000B000B9
:100B48000030FC000030FB000030FA000030F900F3
:100B5800300884316C248531003A031DB42DB52D3D
:100B6800E02D86310726853110302000AF002F0890
:100B7800FD07B1018631CE2685312000AF00013056
:100B8800FD027D08860087012F0881000130AF0033
:100B98002F08B10710303102031CD32DD42DBE2DE0
:100BA8000030FC000030FB000030FA000030F90093
:100BB8000C3084316C24853108002000D619E52DCD
:100BC800E62DE92D86314126853120005619ED2D77
:100BD800EE2DF32D0C30B1000030B200F72D0D30A2
:100BE800B1000030B2000030FC000030FB000030E3
:100BF800FA000030F900310884316C2485318631DF
:100C0800E32685310800F4018631CE268631FE3A86
:100C1800031D0F2E102E112E232E0B30F3006230E1
:100C2800890B142EF30B142E00320130F3007308D5
:100C3800F407FA307402031C222E232E082E080013
:100C4800F4018631CE268631003A03192C2E2D2E3A
:100C58002E2E402E0B30F3006230890B312EF30B11
:100C6800312E00320130F3007308F407FA307402B1
:100C7800031C3F2E402E252E08008631CE268631B5
:100C8800F500F6017508F600F5017508F800760814
:100C9800F9008631CE268631F500F6017508F80789
:100CA8007608F93D7908F4007808F3000800220076
:100CB8001D139D1221000C120C150C100C10200095
:100CC8000C162400141715121508F039023895006F
:100CD80095160800F200F301792EFF308631D926E7
:100CE80086310130F1007108F30773087206031D9D
:100CF8007E2E7F2E712E08002000561D842E852EF4
:100D08008D2E863124268631FC308631D9268631CF
:100D1800902E863107268631080086314126863195
:100D28002000561D982E992EA02E013086316E2651
:100D380086318631CE2686310800F03021009900B0
:100D48009801D73095000C308C0023008C012200CC
:100D58008C018B120B138B1308008631A126863168
:100D680086315B2686318331AC23863180311E2063
:100D78008631BA2E80310828083086316E268631B1
:100D880020000C12013086316E26863186312426E9
:100D98008631080024001108FF308631D9268631B3
:100DA800F1007108F20072080800F00070082400D1
:100DB8009100141CE02EE12EDD2E11080800200001
:100DC8000C16013086316E268631080064008001D9
:100DD8000131890BEB2E00342000560D560D0139D8
:020DE800080001
:020000040001F9
:04000E0084CFFFDFBD
:00000001FF
